:020000040000fa
:10000000f0ff022081030000c3050000c3050000cb
:10001000c3050000c3050000c30500000000000088
:10002000000000000000000000000000c305000008
:10003000c305000000000000c3050000c305000068
:10004000c3050000c3050000c3050000c305000090
:10005000c3050000c3050000c3050000c305000080
:10006000c3050000c3050000c3050000c305000070
:10007000c3050000c3050000c3050000c305000060
:10008000c3050000c3050000c3050000c305000050
:10009000c3050000c3050000c3050000c305000040
:1000a000c3050000c3050000c3050000c305000030
:1000b000c3050000c3050000c3050000c305000020
:1000c000c3050000c3050000c3050000c305000010
:1000d000c3050000c3050000c3050000c305000000
:1000e000c3050000c3050000000000000000000080
:1000f00000000000c3050000c3050000c3050000a8
:10010000c3050000c3050000c3050000c3050000cf
:10011000c3050000c3050000c3050000c3050000bf
:10012000c3050000c3050000c3050000c3050000af
:10013000c3050000c3050000c3050000c30500009f
:10014000c3050000c3050000c3050000c30500008f
:10015000c3050000c305000000000000000000000f
:10016000000000000000000000000000000000008f
:10017000000000000000000000000000000000007f
:10018000c3050000c3050000c3050000c30500004f
:1001900000000000c3050000c3050000c305000007
:1001a000c3050000c3050000c3050000c30500002f
:1001b000c3050000c3050000c3050000c30500001f
:1001c000c3050000c3050000c3050000c30500000f
:1001d000c305000000000000000000000000000057
:1001e000000000000000000000000000c305000047
:1001f000c3050000c3050000c305000000000000a7
:10020000000000000000000000000000c305000026
:10021000c3050000c3050000c3050000c3050000be
:10022000c3050000c3050000c3050000c3050000ae
:10023000c3050000c3050000c3050000c30500009e
:1002400000000000c3050000c3050000c305000056
:10025000c3050000c3050000c3050000c30500007e
:020000040000fa
:10026000f8b500bff8bc08bc9e467047e504000026
:10027000f8b500bff8bc08bc9e467047c10400003a
:020000040000fa
:1002800080b400af0c4b02229a6100bf0a4b1b697d
:1002900003f00203002bf9d0084b094a1a6200bf91
:1002a000064b5b6803f00403002bf9d100bf00bfcd
:1002b000bd465df8047b704700100040001c004004
:1002c0000109010080b400af1b4b02229a6100bffc
:1002d000194b1b6903f00203002bf9d0164b174a88
:1002e0009a63154b164a5a6300bf134bdb6b03f03e
:1002f0000403002bf9d1104b022283f8302000bff9
:100300000d4bdb6b03f00203002bf9d10d4b0e4ab2
:100310001a6200bf0b4b5b6803f00403002bf9d19a
:100320000a4b40f204521a8000bf084b5b8a00bfa0
:10033000bd465df8047b704700100040600003007c
:1003400027001500001c0040070901000040004183
:1003500080b500affff7b6ff084b4ff410329a603c
:10036000064b012283f84e20044b0c2283f83720e1
:10037000024b4ff40032da61fae700bf008000411f
:020000040000fa
:100380001c4b03b198471c4b03b19847eff3108304
:10039000b3fa83f35b09019372b6bff35f8f0199e0
:1003a0004ff0e022d2f8883d43f47003c2f8883d54
:1003b000bff34f8fbff36f8f11b1bff35f8f62b683
:1003c00000f0b8f800f09cf80c4b23f07f030c4ac7
:1003d00093600c4b98470c4b03b198470b4b03b100
:1003e000984700210846fff7b3ff094b03b1984730
:1003f000fee700bf00000000000000000000000059
:1004000000ed00e015040000000000000000000006
:0404100000000000e8
:020000040000fa
:100414000e4a38b5002313600d4a0e4c13600e4a81
:100424000e4d13600e4a13600e4a13600e4a536257
:1004340013610123936000f0d9f800f0d7f8ac42bf
:1004440000d338bd54f8043b9847f8e77000002007
:100454000c0000206c020000080000207002000064
:0c04640000000020040000201000002018
:020000040000fa
:1004700074000020040000000100000000000000e3
:1004800050000020200000000000000000000020bc
:100490005000000000000000700000200400000078
:1004a00000000000780000200400000001000000af
:1004b00000000000000000000000000066666666a4
:020000040000fa
:1004c00010b5054c237833b9044b13b10448aff38e
:1004d00000800123237010bd5000002000000000a8
:1004e0000000000008b5034b1bb103490348aff3fc
:1004f000008008bd00000000540000200000000043
:020000040000fa
:1005000038b50a480a4d016821b9436813b900f0ab
:100510006ef838bd0389426855f8233000f10c04a9
:100520002046984704eb8000ede700bf7004000010
:04053000c4050000fe
:020000040000fa
:10053400084b9a6822f001029a60db6813f0010ffd
:1005440006d1044b20225a609a6842f001029a6054
:08055400704700bf0060004188
:020000040000fa
:10055c001e1819181c182c1834182e182b182d1896
:10056c00261828183718031811184018381830187e
:04057c00071800005c
:020000040000fa
:100580001e1819181c182c1834182e182b182d1872
:10059000261828183718031811184018381830185a
:0405a0000718000038
:020000040000fa
:1005a40010b50023934206d113f0030018bf0120b5
:0e05b40000eb930010bdc45ccc540133f2e7a1
:020000040000fa
:0205c200fee752
:020000040000fa
:1005c400d9050000a5050000eb050000eb050000bf
:0405d400eb05000033
:020000040000fa
:1005d8000a440023914201d10020704701f8013bf1
:0205e800f8e732
:020000040000fa
:0405ea000020704736
:020000040000fa
:0205ee00704754
:020000040000fa
:0205f000704752
:00000001FF
